:020000040000FA
:100000000C9467000C948F000C948F000C948F005C
:100010000C948F000C948F000C948F000C948F0024
:100020000C948F000C948F000C948F000C94BC06E1
:100030000C948F000C94D8020C940A030C948F003B
:100040000C948F000C948F000C948F000C948F00F4
:100050000C948F0000000001000000000000000070
:100060000403000600000000000000000000000083
:100070000000000001020408102040800102040872
:100080001020408001020408102040800102040872
:100090001020408002020202020202020404040450
:1000A0000404040403030303030303030101010124
:1000B0000101010100003B00380035003200000062
:1000C0003A00370034003100A8003A03BA00112486
:1000D0001FBECFE5D8E0DEBFCDBF10E0A0E6B0E0A8
:1000E000E2EEFEE002C005900D92A238B107D9F70A
:1000F00021E0A2E8B0E001C01D92A334B207E1F70D
:1001000010E0C6E6D0E004C02197FE010E944E0731
:10011000C436D107C9F70E94A7040C9464070C9455
:10012000000026E040E05BE460E070E089E990E0F8
:100130000E947B0266E670E089E990E00E94B303CA
:1001400061E08BE00E944D0161E08BE00C9489013D
:100150006CE670E083E990E00E9439046CE670E0A0
:100160008DE890E00E94390460E870E082E890E059
:100170000C94390482E890E00E94CA038DE890E074
:100180000E94CA0383E990E00C94CA03FF920F9384
:100190001F93CF93DF93FF24F39489E990E00E94AB
:1001A000B701181619060CF058C089E990E00E94B2
:1001B000D10190938900809388008535910531F4B1
:1001C00010928B0010928A00F0928C0020918C008B
:1001D000222319F340918A0050918B009A01220F3B
:1001E000331F8A3A910561F04F5F5F4F50938B0048
:1001F00040938A0023573F4FF90191838083CDCFED
:1002000023573F4FF901918380830DE810E0D0E040
:10021000C0E080918A0090918B00C817D90754F4F0
:10022000F80160810E5F1F4F82E890E00E94930406
:100230002196EFCF62E870E089E990E00E94A10387
:1002400060E870E082E890E00E94580410928C0010
:1002500010928B0010928A00A0CFDF91CF911F9156
:100260000F91FF900895833049F018F4813089F0A0
:100270000895843039F0863041F008958FB58F7736
:100280008FBD08958FB58F7DFBCF85B58F7D85BDE3
:10029000089583B78F7D83BF0895CF93DF9390E058
:1002A000FC01EC58FF4F24918C569F4FFC01849128
:1002B0008823C9F090E0880F991FFC01E254FF4F9A
:1002C000A591B491FC01EC54FF4FC591D4916111FB
:1002D0000DC09FB7F8948C91209582238C938881D0
:1002E000282328839FBFDF91CF910895623051F476
:1002F0009FB7F8943C91822F809583238C93E8815B
:100300002E2BEFCF8FB7F894EC912E2B2C938FBF21
:10031000EACF1F93CF93DF93282F30E0F901EC5AF7
:10032000FF4F8491F901EC58FF4FD491F901EC563D
:10033000FF4FC491CC23A9F0162F81110E943301E5
:10034000EC2FF0E0EE0FFF1FEC54FF4FA591B4919E
:100350008FB7F894EC91111108C0D095DE23DC938F
:100360008FBFDF91CF911F910895DE2BF8CFFC0155
:10037000918D228D892F90E0805C9F4F821B910987
:100380008F7399270895FC01918D828D981731F014
:10039000828DE80FF11D858D90E008958FEF9FEF1E
:1003A0000895FC01918D828D981761F0A28DAE0F9A
:1003B000BF2FB11D5D968C91928D9F5F9F73928F21
:1003C00090E008958FEF9FEF089580E393E0892BED
:1003D00049F080E090E0892B29F00E9430038111E0
:1003E0000C9400000895FC01A48DA80FB92FB11D35
:1003F000A35ABF4F2C91848D90E001968F7399275B
:10040000848FA689B7892C93A089B1898C91806447
:100410008C93938D848D981306C00288F389E02D08
:1004200080818F7D80830895CF93DF93EC01888D49
:100430008823B9F0AA89BB89E889F9898C9185FD5F
:1004400003C0808186FD0DC00FB607FCF7CF8C91ED
:1004500085FFF2CF808185FFEDCFCE010E94F301B1
:10046000E9CFDF91CF910895EF92FF920F931F9301
:10047000CF93DF93EC0181E0888F9B8D8C8D981357
:1004800016C0E889F989808185FF11C0EE89FF894E
:100490006083E889F98980818064808381E090E0CD
:1004A000DF91CF911F910F91FF90EF900895F62E5D
:1004B0000B8D10E00F5F1F4F0F731127E02E8C8DF7
:1004C0008E110CC00FB607FCFACFE889F98980813C
:1004D00085FFF5CFCE010E94F301F1CFEB8DEC0F3C
:1004E000FD2FF11DE35AFF4FF0820B8FEA89FB8944
:1004F00080818062D2CFCF92DF92EF92FF921F93E2
:10050000CF93DF93EC016A017B01122F60E874E85E
:100510008EE190E0A70196010E942C07215031093D
:10052000410951095695479537952795E889F989E5
:1005300082E08083211580E1380798F0E889F98905
:10054000108260E472E48FE090E0A70196010E94BF
:100550002C07215031094109510956954795379586
:100560002795EC85FD853083EE85FF852083188EE9
:100570001068EC89FD891083EA89FB89808180619C
:100580008083EA89FB89808188608083EA89FB898E
:10059000808180688083EA89FB8980818F7D808368
:1005A000DF91CF911F91FF90EF90DF90CF90089552
:1005B0001F920F920FB60F9211242F938F939F9338
:1005C000EF93FF93E091A900F091AA008081E09160
:1005D000AF00F091B00082FD1BC090818091B2000D
:1005E0008F5F8F732091B300821741F0E091B200CA
:1005F000F0E0E756FF4F958F8093B200FF91EF91A7
:100600009F918F912F910F900FBE0F901F90189573
:100610008081F4CF1F920F920FB60F9211242F9367
:100620003F934F935F936F937F938F939F93AF937A
:10063000BF93EF93FF9389E990E00E94F301FF914C
:10064000EF91BF91AF919F918F917F916F915F914A
:100650004F913F912F910F900FBE0F901F901895C3
:1006600089E990E00E94B70121E0892B09F420E09C
:10067000822F0895E9E9F0E01382128288EE93E078
:10068000A0E0B0E084839583A683B78382E790E0FF
:100690009183808380E490E09587848729E230E02D
:1006A000378726872BE230E0318B208B2AE230E03F
:1006B000338B228B958B848B8CE290E0978B868B8F
:1006C000118E128E138E148E0895AF92BF92CF9218
:1006D000DF92EF92FF920F931F93CF93DF936C0102
:1006E0007B018B01040F151FEB015E01AE18BF08E3
:1006F000C017D10759F06991D601ED91FC91019095
:10070000F081E02DC6010995892B79F7C501DF91AC
:10071000CF911F910F91FF90EF90DF90CF90BF90FE
:10072000AF900895FB0101900020E9F73197AF01E8
:10073000461B570BDC01ED91FC910280F381E02D0B
:100740000994DB0114964D915C9115976D917C9104
:10075000DC01ED91FC910280F381E02D09946EE7BC
:1007600070E00C9492030F931F93CF93DF938C014F
:10077000D0E0C0E06115710519F00E949203EC0110
:10078000C8010E94AF038C0F9D1FDF91CF911F9175
:100790000F910895FC01808191810C945205CF93B3
:1007A000DF93EC0188819981009711F00E94520536
:1007B000198218821D821C821B821A82DF91CF91BE
:1007C00008950F931F93CF93DF93EC018B016F5F1D
:1007D0007F4F888199810E94DB05009751F09983B2
:1007E00088831B830A8381E0DF91CF911F910F9152
:1007F000089580E0F9CFCF93DF93EC018881998150
:10080000892B49F08A819B818617970720F081E028
:10081000DF91CF910895CE010E94E1038823C1F3B7
:100820008C819D81892B99F7E881F9811082EFCF26
:10083000EF92FF920F931F93CF93DF93EC017B0115
:100840008A01BA010E94FB0381110BC0CE010E94F4
:10085000CF03CE01DF91CF911F910F91FF90EF90C9
:1008600008951D830C83B701888199810E945D07DB
:10087000F0CFFC0111821082138212821582148241
:100880006115710551F0FB0101900020E9F73197E6
:10089000AF01461B570B0C9418040895FB010190FF
:1008A0000020E9F73197AF01461B570B0C94180451
:1008B000CF93DF93EC016115710531F00E944E0476
:1008C000CE01DF91CF9108950E94CF03F9CFEF922F
:1008D000FF920F931F93CF93DF936115710541F43E
:1008E00080E0DF91CF911F910F91FF90EF900895DD
:1008F00041155105B1F07B01EC010C811D81040F04
:10090000151FB8010E94FB03882351F32881398108
:100910008C819D81B701820F931F0E945D071D830B
:100920000C8381E0DECFCF93DF9300D0CDB7DEB76D
:1009300069831A8241E050E0BE016F5F7F4F0E94E1
:1009400067040F900F90DF91CF91089508950E9452
:1009500006070E94A6040E949100C5EED1E00E9405
:10096000C6002097E1F30E94E501F9CF0F931F9392
:10097000CF93DF938230910510F482E090E0E09114
:100980004101F091420130E020E0B0E0A0E030977A
:1009900099F42115310509F44AC0281B390B24307C
:1009A0003105D8F58A819B816115710589F1FB01BB
:1009B00093838283FE0111C04081518102811381A2
:1009C00048175907E0F04817590799F4109761F054
:1009D00012960C93129713961C933296CF01DF91C7
:1009E000CF911F910F9108950093410110934201FF
:1009F000F4CF2115310551F04217530738F0A90102
:100A0000DB019A01BD01DF01F801C1CFEF01F9CF90
:100A10009093420180934101CDCFFE01E20FF31F7D
:100A2000819391932250310939832883D7CF209124
:100A30003F0130914001232B41F42091620030911D
:100A400063003093400120933F012091600030917A
:100A500061002115310541F42DB73EB74091640086
:100A600050916500241B350BE0913F01F09140014E
:100A7000E217F307A0F42E1B3F0B2817390778F075
:100A8000AC014E5F5F4F2417350748F04E0F5F1FD4
:100A90005093400140933F01819391939FCFF0E0A9
:100AA000E0E09CCFCF93DF930097E9F0FC01329711
:100AB00013821282A0914101B0914201ED0130E018
:100AC00020E01097A1F420813181820F931F2091A3
:100AD0003F01309140012817390709F061C0F093B8
:100AE0004001E0933F01DF91CF910895EA01CE17D5
:100AF000DF07E8F54A815B819E0141155105B1F799
:100B0000E901FB83EA8349915991C40FD51FEC1782
:100B1000FD0761F4808191810296840F951FE901A0
:100B200099838883828193819B838A83F0E0E0E0CC
:100B300012968D919C9113970097B9F52D913C9148
:100B40001197CD010296820F931F20913F013091A2
:100B500040012817390739F6309751F510924201B4
:100B600010924101B0934001A0933F01BCCFD383C9
:100B7000C28340815181840F951FC817D90761F442
:100B80004E5F5F4F88819981480F591F5183408381
:100B90008A819B81938382832115310509F0B0CF2F
:100BA000F0934201E09341019ECFFD01DC01C0CFF3
:100BB00013821282D7CF4F925F926F927F928F9261
:100BC0009F92AF92BF92CF92DF92EF92FF920F93DC
:100BD0001F93CF93DF938C01009799F4CB01DF91A2
:100BE000CF911F910F91FF90EF90DF90CF90BF902A
:100BF000AF909F908F907F906F905F904F900C94EC
:100C0000B604FC01E60FF71F9C0122503109E217E0
:100C1000F30708F4AEC0D901CD91DC911197C61746
:100C2000D70720F1C530D10578F0CE01049786179B
:100C3000970750F0C61BD70B2297C193D1936D93A2
:100C40007C93CF010E945205C801DF91CF911F9183
:100C50000F91FF90EF90DF90CF90BF90AF909F905B
:100C60008F907F906F905F904F9008955B01AC1ACA
:100C7000BD0A4C018C0E9D1EA0914101B091420114
:100C8000512C412CF12CE12C109731F580913F0132
:100C9000909140018815990509F05CC046165706E9
:100CA00008F058C08091600090916100009741F475
:100CB0008DB79EB74091640050916500841B950BE1
:100CC000E817F90708F055C0F0934001E0933F01A1
:100CD000F90171836083B8CF8D919C911197129621
:100CE0006C90129713967C901397A815B90559F537
:100CF0006C0142E0C40ED11CCA14DB0420F1AC012B
:100D00004A195B09DA011296159780F062827382A4
:100D100051834083D9016D937C93E114F10471F008
:100D2000D7011396FC93EE9312978ECF22968C0FD9
:100D30009D1FF90191838083F301EFCFF09342016E
:100D4000E093410181CF4816590608F42C017D013A
:100D5000D3019ACFCB010E94B6047C01009749F0E1
:100D6000AE01B8010E945407C8010E9452058701D4
:100D70006BCF10E000E068CF1F920F920FB60F927A
:100D800011242F933F938F939F93AF93BF938091A1
:100D9000370190913801A0913901B0913A01309119
:100DA000360126E0230F2D3758F50296A11DB11DFF
:100DB000209336018093370190933801A093390135
:100DC000B0933A0180913B0190913C01A0913D018B
:100DD000B0913E010196A11DB11D80933B019093FE
:100DE0003C01A0933D01B0933E01BF91AF919F9113
:100DF0008F913F912F910F900FBE0F901F901895DC
:100E000029E8230F0396A11DB11DD2CF789483B793
:100E1000826083BF83B7816083BF83B7806483BFF1
:100E200083B7886083BF89B7816089BF1EBC8EB5D8
:100E300082608EBD8EB581608EBD8FB581608FBDA5
:100E400085B5846085BD85B5806485BD329A319A4B
:100E5000309A379A1AB80895A1E21A2EAA1BBB1B22
:100E6000FD010DC0AA1FBB1FEE1FFF1FA217B30776
:100E7000E407F50720F0A21BB30BE40BF50B661F8C
:100E8000771F881F991F1A9469F760957095809550
:100E900090959B01AC01BD01CF010895EE0FFF1F9E
:100EA0000590F491E02D0994FB01DC0102C0019052
:100EB0000D9241505040D8F70895FB01DC0101909C
:100EC0000D920020E1F7089510E0C6E6D0E004C0DE
:100ED000FE010E944E072196C736D107C9F7F89444
:100EE000FFCF000043018000737461727400200022
:100EF0000000000034026503B701D101C3011402F0
:040F00000D0A0000D6
:107E00000F92CDB7DEB711248FE598E09EBF8DBFEE
:107E100084B714BE982F9D7009F0D2D085E08EBD36
:107E200082E08BB988E18AB986E880BD80E189B9B2
:107E30008EE0B2D0B89A24E088E19EEF54E041E0B1
:107E40009DBD8CBD58BF08B602FEFDCF38B33427A8
:107E500038BBA8952150A1F700E010E053E0F52EC3
:107E6000EE24E39465E0D62E71E1C72E8ED08134E6
:107E700071F48BD0898394D08981823809F477C0DA
:107E8000813811F486E001C083E07BD077C0823472
:107E900011F484E103C0853419F485E089D06EC003
:107EA000853569F472D0A82EBB246FD0082F10E05E
:107EB000102F00270A291B29000F111F5EC08635CD
:107EC00021F484E075D080E0E0CF843609F039C039
:107ED0005CD05BD0A82E59D0982EBA2C20E6622E0A
:107EE000712C53D0F30181933F01BA94D1F758D04C
:107EF000F5E49F1609F4FFCFF801F7BEE89507B641
:107F000000FCFDCFF8018A2DA0E6B0E04C9150E0D6
:107F100011962C91119730E0322F2227242B352BEC
:107F200012960901E7BEE89511243296825071F746
:107F3000F801D7BEE89507B600FCFDCFC7BEE895AF
:107F40001DC0843769F421D020D0B82E1ED028D08F
:107F50003801F30185913F0114D0BA94D1F70EC0D6
:107F6000853739F41DD08EE10CD085E90AD082E046
:107F70008CCF813511F488E00FD012D080E101D090
:107F800075CF5D9BFECF8CB908955F9BFECF5C994A
:107F900001C0A8958CB1089598E191BD81BD089567
:107FA000F4DF803219F088E0F7DFFFCF84E1E9CF1A
:107FB000CF93C82FEADFC150E9F7F2DFCF910895E0
:0C7FC000282E80E0E9DFE0E0FF270994B4
:027FFE00020679
:00000001FF
