:020000040800F2
:10000000B0040020010100086B0E0008F50D000887
:10001000690E00086D010008AD1000080000000026
:100020000000000000000000000000006F0E00084B
:100030006F010008000000006D0E0008710E00083E
:100040001B0100081B0100081B0100081B01000820
:100050001B0100081B0100081B0100081B01000810
:100060001B0100081B0100081B0100081B01000800
:100070001B0100081B0100081B0100081B010008F0
:100080001B0100081B0100081B0100080000000004
:100090000000000000000000000000001B0100083C
:1000A0000000000000000000000000000000000050
:1000B0001B0100081B0100081B0100081B010008B0
:1000C0001B0100081B0100081B0100081B010008A0
:1000D0001B010008951000081B010008A110000872
:1000E0001B0100081B010008DFF810D000F02CF8FD
:1000F00000480047ED100008AFF30080B004002076
:100100000648804706480047FEE7FEE7FEE7FEE7B1
:10011000FEE7FEE7FEE7FEE7FEE7FEE7BD0E0008AE
:10012000E9000008D2B201E000F8012B491EFBD221
:1001300070470022F6E710B513460A4604461946F2
:10014000FFF7F0FF204610BD064C074D06E0E068C3
:1001500040F0010394E8070098471034AC42F6D30E
:10016000FFF7C6FF88110008A8110008FEE77047D6
:1001700010B590F821100024022903D004218163D6
:1001800001243DE001680A6822F00E020A6001685D
:100190000A6822F001020A601A4A0168914201D1FC
:1001A000012121E0174A1432914201D110211BE0B4
:1001B000144A2832914201D1891515E0114A3C3286
:1001C000914201D189140FE00E4A5032914202D17E
:1001D0004FF4803108E00B4A6432914202D14FF46F
:1001E000801101E04FF08071064A083A5160012108
:1001F00080F82110002180F82010416B01B1884760
:10020000204610BD0800024070B5044600F00CF90D
:100210000546601C02D004480078044400F004F94C
:10022000401BA042FAD370BD080000202DE9F84F12
:10023000DFF8B891002409F1040A0AF1040B2346FF
:100240000F270BF1040EC9E00125A5402A40AA4260
:100250007DD1674ED1F804C0ACEB0608B44532D06E
:1002600014DCBCF1030F3AD009DCBCF1000F2AD03A
:10027000BCF1010F1CD0BCF1020F31D11DE0BCF16B
:10028000110F17D0BCF1120F2AD119E0B8F5881F51
:1002900019D006DCB8F5803F15D0B8F5801F1FD106
:1002A00011E0B8F5001F0ED0B8F5041F18D10AE010
:1002B000CB6815E0CB681B1D12E0CB6808330FE05C
:1002C000CB680C330CE08B682BB1012B4FF008038B
:1002D00003D0456104E0042302E0056100E000234F
:1002E000FF2A01D8064601E000F104064FEA840522
:1002F00001D9A5F12005D6F8008007FA05FC28EA07
:100300000C0803FA05F548EA0508C6F800804D68B0
:10031000ED0062D5374DAE6946F00106AE61AD69BC
:1003200024F0030605F001050095334D06EB050C9E
:10033000DCF80850A607360F07FA06F825EA080584
:10034000DFF8B880404503D14FF0000817E044E0E3
:10035000DFF8AC80404502D14FF001080FE0DFF834
:10036000A480404502D14FF0020808E0DFF89880F1
:10037000404502D14FF0030801E04FF0040808FAAD
:1003800006F848EA0508CCF808804D68D9F80060FE
:10039000ED034D4601D5164300E096432E604D68AF
:1003A000DAF80060AD03554601D5164300E09643E8
:1003B0002E604D68DBF80060ED025D4601D5164306
:1003C00000E096432E604D68DEF80060AD02754691
:1003D00001D5164300E096432E60641C0D682A4642
:1003E000E5407FF431AFBDE8F88F00000004014024
:1003F0000000111000100240000001400008014000
:10040000000C01400010014000140140C26821EAC4
:1004100002030A4043EA0241016170470AB10161E7
:1004200070470904FBE7000001488068704700003E
:1004300008000020024881680278114481607047FA
:1004400008000020074810B5016841F01001016064
:10045000032000F075F8002000F006F800F024F802
:10046000002010BD0020024070B50D4D04464FF431
:100470007A712878B1FBF0F00A490968B1FBF0F015
:1004800000F0F0FA48B9102C07D200222146501E85
:1004900000F036F800206C6070BD012070BD0000D7
:1004A00008000020140000200C4808B5816941F0C4
:1004B00001018161816901F001010091C16941F08F
:1004C0008051C161C06900F08050009004484168CB
:1004D00021F0E06141F00071416008BD0010024070
:1004E00000000140002809DB00F01F0201219140BB
:1004F0004009800000F1E020C0F8001170470000C2
:10050000F0B40E4B1B680C46C3F30223C3F107057E
:10051000042D00D90425191D072901D2002300E06C
:10052000DB1E012606FA05F1491E214099409E4036
:10053000761E16403143F0BC00F0B9BD0CED00E072
:10054000064900F0070208684FF6FF03184040EA2A
:100550000220034A10430860704700000CED00E0E1
:100560000000FA052DE9F0470F46050061D0434E23
:10057000306800F00700B84209D2306820F0070068
:1005800038433060306800F00700B84251D1286825
:100590003B4C810712D5400703D5606840F4E0600A
:1005A00060602878000703D5606840F460506060A0
:1005B0006068A96820F0F000084360602878C007F0
:1005C00028D06868012810D02168022810D0890737
:1005D00000292EDA616821F0030101436160FFF711
:1005E00023FF804641F288390DE021688903EFE757
:1005F0008901EDE7FFF718FFA0EB0801494502D993
:100600000320BDE8F0876068696800F00C00B0EB7B
:10061000810FEFD1306800F00700B8420BD9306885
:1006200020F0070038433060306800F00700B8421F
:1006300001D00120E5E72878400705D56068E96822
:1006400020F4E060084360602878000706D5606801
:10065000296920F4605040EAC100606000F038F879
:100660006168084AC1F30311515CC840064908603B
:1006700006480068FFF7F8FE0020C2E700200240AD
:100680000010024070110008140000200C0000202F
:100690000448054900684968044AC1F30221515CD5
:1006A000C84070471400002000100240801100086C
:1006B0000448054900684968044AC1F3C221515CF5
:1006C000C84070471400002000100240801100084C
:1006D00013A185B00FC98DE80F0015A0154A006859
:1006E0000490516801F00C00042804D0082804D0BC
:1006F000114805B070471148FBE7C1F38343C903B4
:100700001DF8030009D5516804AAC1F34041515CAA
:100710000A4A5043B0FBF1F0EBE709494843E8E7E8
:1007200002030405060708090A0B0C0D0E0F101032
:10073000010200000010024000127A00001BB70006
:1007400000093D002DE9F84F040070D02078C04D1D
:10075000C00749D06868C0F38100012807D06868E5
:10076000C0F38100022809D16868C00306D5286853
:10077000800339D560680028E7D035E06068B0F5BF
:10078000803F0BD010B1B0F5A02F11D0286820F415
:1007900080302860286820F4802002E0286840F437
:1007A00080302860606890B1FFF73EFE06460AE0A0
:1007B000286840F480202860F0E700BFFFF734FE8F
:1007C000801B642873D828688003F7D50CE0FFF7F6
:1007D0002BFE064605E000BFFFF726FE801B6428BF
:1007E000F0D828688003F7D420789A4E80074FF01D
:1007F00001094FF0000839D5686810F00C0F07D0D8
:100800006868C0F38100022809D16868C00306D473
:100810002868800714D52069012808D110E02069D4
:10082000B0B1C6F80090FFF7FFFD074605E00AE10A
:10083000FFF7FAFDC01B0228C4D828688007F7D547
:100840002868616920F0F80040EAC10028600DE0E6
:10085000C6F80080FFF7E8FD074604E0FFF7E4FD77
:10086000C01B022823D828688007F7D42078000707
:100870002CD57948A169D9B1C0F80090FFF7D4FD13
:10088000074604E0FFF7D0FDC01B02280FD8686AB6
:100890008007F7D571484FF4FA510068B0FBF1F0CA
:1008A000009000BF0098411E0091FAD20EE080E057
:1008B000C0F80080FFF7B8FD074604E0FFF7B4FD7D
:1008C000C01B022875D8686A8007F7D420784007D3
:1008D00060D5E8690027C00008D4E86940F080507E
:1008E000E861E869012700F0805000905C480168E9
:1008F000C90513D40168834641F480710160FFF794
:1009000093FD824606E000BFFFF78EFDA0EB0A00D4
:1009100064284ED8DBF80000C005F5D5E068012852
:100920000AD008B1052813D0286A20F001002862F7
:10093000286A20F0040002E0286A40F001002862E2
:10094000E06841F2883B98B1FFF76EFD82460BE00C
:10095000286A40F004002862EEE700BFFFF764FD5C
:10096000A0EB0A0159455AD8286A8007F6D50CE051
:10097000FFF75AFD824605E0FFF756FDA0EB0A019E
:1009800059454CD8286A8007F6D41FB1E86920F091
:100990008050E861E06988B36968C1F38101022988
:1009A00044D00228C6F8608004D0FFF73DFD04461D
:1009B00038E034E0FFF738FD074604E0FFF734FD88
:1009C000C01B02282BD828688001F7D4206AB0F514
:1009D000803F05D16868A16820F400300843686052
:1009E000D4E908010843696821F474110843686078
:1009F000C6F86090FFF718FD044606E025E000BF4A
:100A0000FFF712FD001B022809D828688001F7D5DE
:100A10001BE000BFFFF708FD001B022802D90320DE
:100A2000BDE8F88F28688001F4D40EE00128F7D0E3
:100A30006868226A00F48031914204D1616A00F44E
:100A40007010884201D00120EAE70020E8E70000AA
:100A50000010024000004242800442421400002084
:100A60000070004010B5401EB0F1807F01D301201E
:100A700010BD4FF0E02460610F21601700F017FBFC
:100A80000020A06107202061002010BD70470000F9
:100A900070B5026804461068D168536910F00F0FF2
:100AA00052D003F0010501F490762E435FD0C207C7
:100AB00005D0CA0503D5E26B42F00102E2634207AA
:100AC00005D5DA0703D0E26B42F00202E263820747
:100AD00005D5DA0703D0E26B42F00402E2630207B5
:100AE00007D501F020022A4303D0E26B42F008024E
:100AF000E263E26B002A33D0800604D5880602D573
:100B0000204600F0F2F920684069E16BC0F38010E4
:100B1000090700D428B3204600F0D9F920684169BC
:100B200049061AD5416921F040014161606BA0B1CD
:100B30002D494163606BFFF71BFB002810D0606BF1
:100B4000416BBDE870400847830610D58B060ED573
:100B50002046BDE8704000F0C8B92046FFF796FF78
:100B600070BD2046FFF792FF0020E06370BD0306D2
:100B70002BD50B0629D594F839002128F6D1A06889
:100B8000B0F5805F01D12069B0B1206A411C2162BB
:100B9000216800784860E08C401E0004000CE0846E
:100BA000E4D12068C16821F08001C1602068C1687B
:100BB00041F04001C16070BD206A0088C0F30800A8
:100BC0005060206A801C2062E5E74006F3D54806A5
:100BD000F1D5D168204621F04001D160202184F870
:100BE000391000F006F970BDBF0E000870B50400A2
:100BF00004D094F83900002510B106E0012070BD42
:100C000084F83850204600F023F8242084F8390076
:100C10002068C16821F40051C160204600F0ACF9A1
:100C20002068016921F4904101612068416921F047
:100C30002A0141612068C16841F40051C160E56347
:100C4000202084F8390084F83A00002070BD0000AC
:100C500070B586B000240094019402940394036854
:100C60002E482D4E022103220515B34226D1836959
:100C700043F480438361836903F48043049383696D
:100C800043F0040383618069254E00F00400049062
:100C90000802CDE90001039269463046FFF7C6FA23
:100CA000CDE90054694630460294FFF7BFFA0022AE
:100CB00011462520FFF724FC252028E0194EB342D9
:100CC00027D1C36943F48023C361C36903F480233C
:100CD0000493836943F0080383618069CDE900517F
:100CE00000F00800CDE903200F4D69462846FFF7C4
:100CF0009DFAE814CDE90004694628460294FFF7FE
:100D000095FA002211462720FFF7FAFB2720FFF76C
:100D1000E9FB06B070BD0000003801400010024041
:100D20000008014000480040000C01400349FF2337
:100D30000A2201F1540000F003B80000180000205E
:100D40002DE9F843044690F839001F4616460D4633
:100D500020284CD1C5B1BEB194F83800012846D046
:100D6000012084F838004FF00008C4F83C802120AE
:100D700084F83900FFF758FBA6848146E684A06812
:100D8000B0F5805F03D004E00120BDE8F88320695E
:100D900028B12E465FF0000584F838800EE000266A
:100DA000FAE78021204600F043F9A0B9AEB116F869
:100DB000010B21684860E08C401EE084E08C4B46CB
:100DC0004FF0000200970028EBD14FF04001204681
:100DD00000F02EF930B10320D7E735F8020BC0F34D
:100DE0000800E6E7202084F839000020CDE7022043
:100DF000CBE77047FEE7000070B586B000241848C6
:100E00000094019402940394816941F0200181616E
:100E1000816901F020010491816941F0080181613B
:100E2000816901F008010491816941F00401816147
:100E300080690C4E00F004004FF4805504900022AD
:100E400029463046FFF7EAFA11200095CDE9010462
:100E50000220039069463046FFF7E8F906B070BDFE
:100E600000100240000C0140FEE7704770477047D9
:100E7000FFF7E0BA30B58FB028216846FFF759F97F
:100E800014210AA8FFF755F9012108040024049150
:100E9000CDE90010CDE908040294022507956846C3
:100EA000FFF750FC0F200A90CDE90B540D94002160
:100EB0000AA80E94FFF756FB0FB030BD704710B56F
:100EC000406A0021C185C184FFF7E0FD10BD0168C3
:100ED000CA6822F49072CA6001684A6922F001026D
:100EE0004A61202180F83A10704710B590F83A1006
:100EF000222901D0022010BD82684FF480539A420B
:100F000001D1016921B1816A9A421BD04AB10AE03C
:100F10000268816A5268C2F308020A80816A891CE9
:100F200008E0026972B10268526802F07F020A703A
:100F3000816A491C8162C18D491E0904090CC18561
:100F400003D016E002685268F1E70168CA6822F02F
:100F50002002CA600168CA6822F48072CA6001680F
:100F60004A6922F001024A61202180F83A10FFF715
:100F7000DDFE002010BD000070B504460068016968
:100F8000E26821F44051114301612169A0680843DE
:100F9000616908432168CA6841F20C639A430243BD
:100FA000CA6020684169A26921F44071114341611E
:100FB0001E492068884202D1FFF77AFB01E0FFF763
:100FC00067FB00EBC00101EB001260686421800048
:100FD000B2FBF0F3B3FBF1F36FF018067343B2FB0F
:100FE000F0F5B2FBF0F605EB8305322303EB0515B4
:100FF000B5FBF1F5B6FBF1F605F0F00505EB0615CE
:10100000B2FBF0F6B2FBF0F0B0FBF1F06FF01802BB
:10101000504306EB800003EB0010B0FBF1F02168B9
:1010200000F00F002844886070BD000000380140C7
:101030002DE9F041984617460E460446069D1DE0F0
:10104000681C1BD02DB1FFF7EFF9A0EB0800A842F8
:1010500014D92068C16821F4D071C1602068416949
:1010600021F001014161202084F8390084F83A0020
:10107000002084F838000320BDE8F0812068006873
:1010800036EA000004D00020B842D9D00020F3E7AF
:101090000120F9E70148FFF7FBBC00002C0000200D
:1010A0000148FFF7F5BC00006C000020FEE70907CF
:1010B000090E002804DB00F1E02080F800147047DE
:1010C00000F00F0000F1E02080F8141D704702E0EE
:1010D00008C8121F08C1002AFAD1704770470020C3
:1010E00001E001C1121F002AFBD17047FFF7AAF9E6
:1010F000FFF7C0FEFFF780FE194818494FF49645E8
:1011000000240160C0E901540C26C460C0E9044613
:101110008461C461FFF76AFD1148124940300160E3
:10112000C0E90154C460C0E904468461C461FFF7AA
:101130005DFD0D4D4FF480544FF47A7621462846DC
:10114000FFF764F93046FFF75FF80548FF230422F4
:1011500006494030FFF7F4FDF0E700000038014099
:101160002C00002000480040000C0140000000203E
:101170000000000000000000010203040607080947
:101180000000000001020304A81100080000002074
:1011900018000000CE100008C01100081800002040
:1011A00098040000DE100008434F50590000000072
:1011B0000100000010000000000000000024F40006
:04000005080000E906
:00000001FF
