:100000000C9465000C948D000C948D000C948D0064
:100010000C948D000C948D000C948D000C948D002C
:100020000C948D000C948D000C948D000C94930214
:100030000C948D000C9461020C943B020C948D0086
:100040000C948D000C948D000C948D000C948D00FC
:100050000C948D0000000001000000000000000072
:100060000403000600000000000000000000000083
:100070000000000000003B003800350032000000A6
:100080003A0037003400310002020202020202028A
:100090000404040404040404030303030303030328
:1000A0000101010101010101010204081020408049
:1000B0000102040810204080010204081020408042
:1000C00001020408102040806B0311241FBECFE5FD
:1000D000D8E0DEBFCDBF10E0A0E6B0E0ECE3F7E093
:1000E00002C005900D92A837B107D9F721E0A8E723
:1000F000B0E001C01D92AE31B207E1F710E0C5E6F5
:10010000D0E004C02197FE010E949603C436D107B7
:10011000C9F70E94DD020C949C030C94000090E04F
:10012000FC01E855FF4F249188579F4FFC018491B3
:10013000882399F090E0880F991FFC01E258FF4F47
:10014000A591B491FC01EC58FF4F859194918FB724
:10015000F894EC91E22BEC938FBF0895E3E7F0E085
:100160002491E7ECF0E09491E7EAF0E0E491EE23EB
:10017000C1F0222329F02330E9F0A0F4213009F165
:10018000F0E0EE0FFF1FEC58FF4FA591B4912FB791
:10019000F89481111AC08C91E92FE095E823EC9333
:1001A0002FBF0895243051F0263051F725B52F7D0B
:1001B00025BDE6CF2FB52F772FBDE2CF2FB52F7DF1
:1001C000FBCF23B72F7D23BFDBCFEC91E92BE7CF0C
:1001D000AF92BF92CF92DF92EF92FF920F931F9355
:1001E000CF93DF936C017B018B01040F151FEB0193
:1001F0005E01AE18BF08C017D10759F06991D6014A
:10020000ED91FC910190F081E02DC6010995892BBB
:1002100079F7C501DF91CF911F910F91FF90EF907A
:10022000DF90CF90BF90AF900895FC01918D828DAB
:10023000981761F0A28DAE0FBF2FB11D5D968C9106
:10024000928D9F5F9F73928F90E008958FEF9FEF45
:100250000895FC01918D828D981731F0828DE80F01
:10026000F11D858D90E008958FEF9FEF0895FC01BB
:10027000918D228D892F90E0805C9F4F821B910988
:100280008F739927089581E890E00E94370121E05B
:10029000892B09F420E0822F089580E090E0892BDB
:1002A00029F00E94430181110C9400000895FC0183
:1002B000A48DA80FB92FB11DA35ABF4F2C91848DC7
:1002C00090E001968F739927848FA689B7892C9324
:1002D000A089B1898C9180648C93938D848D9813BF
:1002E00006C00288F389E02D80818F7D8083089588
:1002F000EF92FF920F931F93CF93DF93EC0181E076
:10030000888F9B8D8C8D981316C0E889F989808120
:1003100085FF11C0EE89FF896083E889F9898081B2
:100320008064808381E090E0DF91CF911F910F91F5
:10033000FF90EF900895F62E0B8D10E00F5F1F4F8A
:100340000F731127E02E8C8D8E110CC00FB607FC99
:10035000FACFE889F989808185FFF5CFCE010E9427
:100360005701F1CFEB8DEC0FFD2FF11DE35AFF4F3D
:10037000F0820B8FEA89FB8980818062D2CFCF9394
:10038000DF93EC01888D8823B9F0AA89BB89E889BD
:10039000F9898C9185FD03C0808186FD0DC00FB663
:1003A00007FCF7CF8C9185FFF2CF808185FFEDCFE1
:1003B000CE010E945701E9CFDF91CF9108953FB759
:1003C000F89480917D0090917E00A0917F00B09183
:1003D000800022B708B600FE05C02F3F19F0019635
:1003E000A11DB11D3FBFBA2FA92F982F8827BC018F
:1003F000CD01620F711D811D911D43E0660F771FB6
:10040000881F991F4A95D1F708958F929F92AF92B6
:10041000BF92CF92DF92EF92FF920E94DF014B01D9
:100420005C0188EEC82E83E0D82EE12CF12C0E94CE
:10043000DF01681979098A099B09683E73408105C3
:100440009105A8F321E0C21AD108E108F10888EE6D
:10045000880E83E0981EA11CB11CC114D104E104D4
:10046000F10429F7FF90EF90DF90CF90BF90AF900D
:100470009F908F9008951F920F920FB60F921124A4
:100480002F933F934F935F936F937F938F939F939C
:10049000AF93BF93EF93FF9381E890E00E945701E1
:1004A000FF91EF91BF91AF919F918F917F916F914C
:1004B0005F914F913F912F910F900FBE0F901F9022
:1004C00018951F920F920FB60F9211242F938F93AE
:1004D0009F93EF93FF93E0919100F09192008081C0
:1004E000E0919700F091980082FD1BC0908180916F
:1004F0009A008F5F8F7320919B00821741F0E091EB
:100500009A00F0E0EF57FF4F958F80939A00FF918C
:10051000EF919F918F912F910F900FBE0F901F9091
:1005200018958081F4CF1F920F920FB60F9211246D
:100530002F933F938F939F93AF93BF9380917900B5
:1005400090917A00A0917B00B0917C00309178006E
:1005500026E0230F2D3758F50296A11DB11D2093DB
:1005600078008093790090937A00A0937B00B093F9
:100570007C0080917D0090917E00A0917F00B091E1
:1005800080000196A11DB11D80937D0090937E0097
:10059000A0937F00B0938000BF91AF919F918F9106
:1005A0003F912F910F900FBE0F901F90189529E843
:1005B000230F0396A11DB11DD2CF789483B782601B
:1005C00083BF83B7816083BF83B7806483BF83B7F2
:1005D000886083BF89B7816089BF1EBC8EB5826089
:1005E0008EBD8EB581608EBD8FB581608FBD85B5A6
:1005F000846085BD85B5806485BD329A319A309A14
:10060000379A1AB88FE10E948F008EE10E948F0006
:100610008DE10E948F008CE10E948F008BE10E948F
:100620008F00E0919100F091920082E08083E09150
:100630008D00F0918E001082E0918F00F09190007B
:1006400087E6808310929900E0919500F0919600E2
:1006500086E88083E0919300F0919400808180612E
:100660008083E0919300F091940080818860808382
:10067000E0919300F0919400808180688083E09104
:100680009300F091940080818F7D8083C0E0D0E062
:1006900080E00E94AE000E94050281E00E94AE0050
:1006A0000E94050244E050E060E770E081E890E0DD
:1006B0000E94E80042E050E065E770E081E890E0E9
:1006C0000E94E800209721F30E944301882301F350
:1006D0000E940000DDCFE1E8F0E01382128288EE94
:1006E00093E0A0E0B0E084839583A683B78384E69B
:1006F00090E09183808380E490E09587848729E26D
:1007000030E0378726872BE230E0318B208B2AE2DE
:1007100030E0338B228B958B848B8CE290E0978B2F
:10072000868B118E128E138E148E0895EE0FFF1F7E
:0C0730000590F491E02D0994F894FFCF9F
:10073C00000000007801E800370115012901BF0114
:08074C0061424344000D0A0064
:00000001FF
